{
  "_format": "hh-sol-artifact-1",
  "contractName": "Transaction",
  "sourceName": "contracts/Transaction.sol",
  "abi": [
    {
      "anonymous": false,
      "inputs": [
        {
          "indexed": true,
          "internalType": "address",
          "name": "sender",
          "type": "address"
        },
        {
          "indexed": true,
          "internalType": "address",
          "name": "receiver",
          "type": "address"
        },
        {
          "indexed": false,
          "internalType": "uint256",
          "name": "amount",
          "type": "uint256"
        },
        {
          "indexed": false,
          "internalType": "string",
          "name": "message",
          "type": "string"
        },
        {
          "indexed": false,
          "internalType": "uint256",
          "name": "timeStamp",
          "type": "uint256"
        }
      ],
      "name": "Transfer",
      "type": "event"
    },
    {
      "inputs": [],
      "name": "getAllTransactions",
      "outputs": [
        {
          "components": [
            {
              "internalType": "address",
              "name": "sender",
              "type": "address"
            },
            {
              "internalType": "address",
              "name": "receiver",
              "type": "address"
            },
            {
              "internalType": "uint256",
              "name": "amount",
              "type": "uint256"
            },
            {
              "internalType": "string",
              "name": "message",
              "type": "string"
            },
            {
              "internalType": "uint256",
              "name": "timeStamp",
              "type": "uint256"
            }
          ],
          "internalType": "struct Transaction.TransactionStruct[]",
          "name": "",
          "type": "tuple[]"
        }
      ],
      "stateMutability": "view",
      "type": "function"
    },
    {
      "inputs": [],
      "name": "getTransactionCount",
      "outputs": [
        {
          "internalType": "uint256",
          "name": "",
          "type": "uint256"
        }
      ],
      "stateMutability": "view",
      "type": "function"
    },
    {
      "inputs": [],
      "name": "transactionCounter",
      "outputs": [
        {
          "internalType": "uint256",
          "name": "",
          "type": "uint256"
        }
      ],
      "stateMutability": "view",
      "type": "function"
    },
    {
      "inputs": [
        {
          "internalType": "address payable",
          "name": "_receiver",
          "type": "address"
        },
        {
          "internalType": "string",
          "name": "_message",
          "type": "string"
        }
      ],
      "name": "transfer",
      "outputs": [],
      "stateMutability": "payable",
      "type": "function"
    }
  ],
  "bytecode": "0x608060405234801561001057600080fd5b50610d25806100206000396000f3fe60806040526004361061003f5760003560e01c8063098866491461004457806314e887e81461006057806327506f531461008b5780632e7700f0146100b6575b600080fd5b61005e600480360381019061005991906107bb565b6100e1565b005b34801561006c57600080fd5b506100756103a0565b6040516100829190610830565b60405180910390f35b34801561009757600080fd5b506100a06103a6565b6040516100ad9190610a3b565b60405180910390f35b3480156100c257600080fd5b506100cb610557565b6040516100d89190610830565b60405180910390f35b60003411610124576040517f08c379a000000000000000000000000000000000000000000000000000000000815260040161011b90610ae0565b60405180910390fd5b600073ffffffffffffffffffffffffffffffffffffffff168273ffffffffffffffffffffffffffffffffffffffff161415610194576040517f08c379a000000000000000000000000000000000000000000000000000000000815260040161018b90610b72565b60405180910390fd5b60016040518060a001604052803373ffffffffffffffffffffffffffffffffffffffff1681526020018473ffffffffffffffffffffffffffffffffffffffff16815260200134815260200183815260200142815250908060018154018082558091505060019003906000526020600020906005020160009091909190915060008201518160000160006101000a81548173ffffffffffffffffffffffffffffffffffffffff021916908373ffffffffffffffffffffffffffffffffffffffff16021790555060208201518160010160006101000a81548173ffffffffffffffffffffffffffffffffffffffff021916908373ffffffffffffffffffffffffffffffffffffffff1602179055506040820151816002015560608201518160030190805190602001906102c6929190610560565b5060808201518160040155505060016000808282546102e59190610bc1565b925050819055508173ffffffffffffffffffffffffffffffffffffffff163373ffffffffffffffffffffffffffffffffffffffff167fc4b32d7ff75a51e487f3cbb5d3202f2efecca1f4c2b987e0039c1d3220b48a8334844260405161034d93929190610c50565b60405180910390a38173ffffffffffffffffffffffffffffffffffffffff166108fc349081150290604051600060405180830381858888f1935050505015801561039b573d6000803e3d6000fd5b505050565b60005481565b60606001805480602002602001604051908101604052809291908181526020016000905b8282101561054e57838290600052602060002090600502016040518060a00160405290816000820160009054906101000a900473ffffffffffffffffffffffffffffffffffffffff1673ffffffffffffffffffffffffffffffffffffffff1673ffffffffffffffffffffffffffffffffffffffff1681526020016001820160009054906101000a900473ffffffffffffffffffffffffffffffffffffffff1673ffffffffffffffffffffffffffffffffffffffff1673ffffffffffffffffffffffffffffffffffffffff168152602001600282015481526020016003820180546104b390610cbd565b80601f01602080910402602001604051908101604052809291908181526020018280546104df90610cbd565b801561052c5780601f106105015761010080835404028352916020019161052c565b820191906000526020600020905b81548152906001019060200180831161050f57829003601f168201915b50505050508152602001600482015481525050815260200190600101906103ca565b50505050905090565b60008054905090565b82805461056c90610cbd565b90600052602060002090601f01602090048101928261058e57600085556105d5565b82601f106105a757805160ff19168380011785556105d5565b828001600101855582156105d5579182015b828111156105d45782518255916020019190600101906105b9565b5b5090506105e291906105e6565b5090565b5b808211156105ff5760008160009055506001016105e7565b5090565b6000604051905090565b600080fd5b600080fd5b600073ffffffffffffffffffffffffffffffffffffffff82169050919050565b600061064282610617565b9050919050565b61065281610637565b811461065d57600080fd5b50565b60008135905061066f81610649565b92915050565b600080fd5b600080fd5b6000601f19601f8301169050919050565b7f4e487b7100000000000000000000000000000000000000000000000000000000600052604160045260246000fd5b6106c88261067f565b810181811067ffffffffffffffff821117156106e7576106e6610690565b5b80604052505050565b60006106fa610603565b905061070682826106bf565b919050565b600067ffffffffffffffff82111561072657610725610690565b5b61072f8261067f565b9050602081019050919050565b82818337600083830152505050565b600061075e6107598461070b565b6106f0565b90508281526020810184848401111561077a5761077961067a565b5b61078584828561073c565b509392505050565b600082601f8301126107a2576107a1610675565b5b81356107b284826020860161074b565b91505092915050565b600080604083850312156107d2576107d161060d565b5b60006107e085828601610660565b925050602083013567ffffffffffffffff81111561080157610800610612565b5b61080d8582860161078d565b9150509250929050565b6000819050919050565b61082a81610817565b82525050565b60006020820190506108456000830184610821565b92915050565b600081519050919050565b600082825260208201905092915050565b6000819050602082019050919050565b600061088282610617565b9050919050565b61089281610877565b82525050565b6108a181610817565b82525050565b600081519050919050565b600082825260208201905092915050565b60005b838110156108e15780820151818401526020810190506108c6565b838111156108f0576000848401525b50505050565b6000610901826108a7565b61090b81856108b2565b935061091b8185602086016108c3565b6109248161067f565b840191505092915050565b600060a0830160008301516109476000860182610889565b50602083015161095a6020860182610889565b50604083015161096d6040860182610898565b506060830151848203606086015261098582826108f6565b915050608083015161099a6080860182610898565b508091505092915050565b60006109b1838361092f565b905092915050565b6000602082019050919050565b60006109d18261084b565b6109db8185610856565b9350836020820285016109ed85610867565b8060005b85811015610a295784840389528151610a0a85826109a5565b9450610a15836109b9565b925060208a019950506001810190506109f1565b50829750879550505050505092915050565b60006020820190508181036000830152610a5581846109c6565b905092915050565b600082825260208201905092915050565b7f5472616e7366657220616d6f756e74206d75737420626520677265617465722060008201527f7468616e207a65726f2e00000000000000000000000000000000000000000000602082015250565b6000610aca602a83610a5d565b9150610ad582610a6e565b604082019050919050565b60006020820190508181036000830152610af981610abd565b9050919050565b7f52656365697665722063616e6e6f7420626520746865207a65726f206164647260008201527f6573732e00000000000000000000000000000000000000000000000000000000602082015250565b6000610b5c602483610a5d565b9150610b6782610b00565b604082019050919050565b60006020820190508181036000830152610b8b81610b4f565b9050919050565b7f4e487b7100000000000000000000000000000000000000000000000000000000600052601160045260246000fd5b6000610bcc82610817565b9150610bd783610817565b9250827fffffffffffffffffffffffffffffffffffffffffffffffffffffffffffffffff03821115610c0c57610c0b610b92565b5b828201905092915050565b6000610c22826108a7565b610c2c8185610a5d565b9350610c3c8185602086016108c3565b610c458161067f565b840191505092915050565b6000606082019050610c656000830186610821565b8181036020830152610c778185610c17565b9050610c866040830184610821565b949350505050565b7f4e487b7100000000000000000000000000000000000000000000000000000000600052602260045260246000fd5b60006002820490506001821680610cd557607f821691505b60208210811415610ce957610ce8610c8e565b5b5091905056fea264697066735822122072237a722a7fa726e29e9401811ad20c0f74c73d16fe37787af5dec984e261f964736f6c63430008090033",
  "linkReferences": {},
  "deployedLinkReferences": {}
}